{
  "_format": "hh-sol-artifact-1",
  "contractName": "TalentLayerPlatformID",
  "sourceName": "contracts/TalentLayerPlatformID.sol",
  "abi": [
    {
      "inputs": [],
      "stateMutability": "nonpayable",
      "type": "constructor"
    },
    {
      "inputs": [],
      "name": "HandleContainsInvalidCharacters",
      "type": "error"
    },
    {
      "inputs": [],
      "name": "HandleFirstCharInvalid",
      "type": "error"
    },
    {
      "inputs": [],
      "name": "HandleLengthInvalid",
      "type": "error"
    },
    {
      "anonymous": false,
      "inputs": [
        {
          "indexed": false,
          "internalType": "address",
          "name": "previousAdmin",
          "type": "address"
        },
        {
          "indexed": false,
          "internalType": "address",
          "name": "newAdmin",
          "type": "address"
        }
      ],
      "name": "AdminChanged",
      "type": "event"
    },
    {
      "anonymous": false,
      "inputs": [
        {
          "indexed": true,
          "internalType": "address",
          "name": "owner",
          "type": "address"
        },
        {
          "indexed": true,
          "internalType": "address",
          "name": "approved",
          "type": "address"
        },
        {
          "indexed": true,
          "internalType": "uint256",
          "name": "tokenId",
          "type": "uint256"
        }
      ],
      "name": "Approval",
      "type": "event"
    },
    {
      "anonymous": false,
      "inputs": [
        {
          "indexed": true,
          "internalType": "address",
          "name": "owner",
          "type": "address"
        },
        {
          "indexed": true,
          "internalType": "address",
          "name": "operator",
          "type": "address"
        },
        {
          "indexed": false,
          "internalType": "bool",
          "name": "approved",
          "type": "bool"
        }
      ],
      "name": "ApprovalForAll",
      "type": "event"
    },
    {
      "anonymous": false,
      "inputs": [
        {
          "indexed": false,
          "internalType": "uint256",
          "name": "platformId",
          "type": "uint256"
        },
        {
          "indexed": false,
          "internalType": "uint256",
          "name": "arbitrationFeeTimeout",
          "type": "uint256"
        }
      ],
      "name": "ArbitrationFeeTimeoutUpdated",
      "type": "event"
    },
    {
      "anonymous": false,
      "inputs": [
        {
          "indexed": false,
          "internalType": "address",
          "name": "arbitrator",
          "type": "address"
        },
        {
          "indexed": false,
          "internalType": "bool",
          "name": "isInternal",
          "type": "bool"
        }
      ],
      "name": "ArbitratorAdded",
      "type": "event"
    },
    {
      "anonymous": false,
      "inputs": [
        {
          "indexed": false,
          "internalType": "address",
          "name": "arbitrator",
          "type": "address"
        }
      ],
      "name": "ArbitratorRemoved",
      "type": "event"
    },
    {
      "anonymous": false,
      "inputs": [
        {
          "indexed": false,
          "internalType": "uint256",
          "name": "platformId",
          "type": "uint256"
        },
        {
          "indexed": false,
          "internalType": "contract Arbitrator",
          "name": "arbitrator",
          "type": "address"
        },
        {
          "indexed": false,
          "internalType": "bytes",
          "name": "extraData",
          "type": "bytes"
        }
      ],
      "name": "ArbitratorUpdated",
      "type": "event"
    },
    {
      "anonymous": false,
      "inputs": [
        {
          "indexed": true,
          "internalType": "address",
          "name": "beacon",
          "type": "address"
        }
      ],
      "name": "BeaconUpgraded",
      "type": "event"
    },
    {
      "anonymous": false,
      "inputs": [
        {
          "indexed": true,
          "internalType": "uint256",
          "name": "platformId",
          "type": "uint256"
        },
        {
          "indexed": false,
          "internalType": "string",
          "name": "newCid",
          "type": "string"
        }
      ],
      "name": "CidUpdated",
      "type": "event"
    },
    {
      "anonymous": false,
      "inputs": [
        {
          "indexed": false,
          "internalType": "uint8",
          "name": "version",
          "type": "uint8"
        }
      ],
      "name": "Initialized",
      "type": "event"
    },
    {
      "anonymous": false,
      "inputs": [
        {
          "indexed": false,
          "internalType": "uint256",
          "name": "minArbitrationFeeTimeout",
          "type": "uint256"
        }
      ],
      "name": "MinArbitrationFeeTimeoutUpdated",
      "type": "event"
    },
    {
      "anonymous": false,
      "inputs": [
        {
          "indexed": true,
          "internalType": "address",
          "name": "platformOwnerAddress",
          "type": "address"
        },
        {
          "indexed": false,
          "internalType": "uint256",
          "name": "platformId",
          "type": "uint256"
        },
        {
          "indexed": false,
          "internalType": "string",
          "name": "platformName",
          "type": "string"
        },
        {
          "indexed": false,
          "internalType": "uint256",
          "name": "fee",
          "type": "uint256"
        },
        {
          "indexed": false,
          "internalType": "uint256",
          "name": "arbitrationFeeTimeout",
          "type": "uint256"
        }
      ],
      "name": "Mint",
      "type": "event"
    },
    {
      "anonymous": false,
      "inputs": [
        {
          "indexed": false,
          "internalType": "uint256",
          "name": "mintFee",
          "type": "uint256"
        }
      ],
      "name": "MintFeeUpdated",
      "type": "event"
    },
    {
      "anonymous": false,
      "inputs": [
        {
          "indexed": false,
          "internalType": "enum TalentLayerPlatformID.MintStatus",
          "name": "mintStatus",
          "type": "uint8"
        }
      ],
      "name": "MintStatusUpdated",
      "type": "event"
    },
    {
      "anonymous": false,
      "inputs": [
        {
          "indexed": false,
          "internalType": "uint256",
          "name": "platformId",
          "type": "uint256"
        },
        {
          "indexed": false,
          "internalType": "uint16",
          "name": "originServiceFeeRate",
          "type": "uint16"
        }
      ],
      "name": "OriginServiceFeeRateUpdated",
      "type": "event"
    },
    {
      "anonymous": false,
      "inputs": [
        {
          "indexed": false,
          "internalType": "uint256",
          "name": "platformId",
          "type": "uint256"
        },
        {
          "indexed": false,
          "internalType": "uint16",
          "name": "originValidatedProposalFeeRate",
          "type": "uint16"
        }
      ],
      "name": "OriginValidatedProposalFeeRateUpdated",
      "type": "event"
    },
    {
      "anonymous": false,
      "inputs": [
        {
          "indexed": false,
          "internalType": "uint256",
          "name": "platformId",
          "type": "uint256"
        },
        {
          "indexed": false,
          "internalType": "uint256",
          "name": "proposalPostingFee",
          "type": "uint256"
        }
      ],
      "name": "ProposalPostingFeeUpdated",
      "type": "event"
    },
    {
      "anonymous": false,
      "inputs": [
        {
          "indexed": true,
          "internalType": "bytes32",
          "name": "role",
          "type": "bytes32"
        },
        {
          "indexed": true,
          "internalType": "bytes32",
          "name": "previousAdminRole",
          "type": "bytes32"
        },
        {
          "indexed": true,
          "internalType": "bytes32",
          "name": "newAdminRole",
          "type": "bytes32"
        }
      ],
      "name": "RoleAdminChanged",
      "type": "event"
    },
    {
      "anonymous": false,
      "inputs": [
        {
          "indexed": true,
          "internalType": "bytes32",
          "name": "role",
          "type": "bytes32"
        },
        {
          "indexed": true,
          "internalType": "address",
          "name": "account",
          "type": "address"
        },
        {
          "indexed": true,
          "internalType": "address",
          "name": "sender",
          "type": "address"
        }
      ],
      "name": "RoleGranted",
      "type": "event"
    },
    {
      "anonymous": false,
      "inputs": [
        {
          "indexed": true,
          "internalType": "bytes32",
          "name": "role",
          "type": "bytes32"
        },
        {
          "indexed": true,
          "internalType": "address",
          "name": "account",
          "type": "address"
        },
        {
          "indexed": true,
          "internalType": "address",
          "name": "sender",
          "type": "address"
        }
      ],
      "name": "RoleRevoked",
      "type": "event"
    },
    {
      "anonymous": false,
      "inputs": [
        {
          "indexed": false,
          "internalType": "uint256",
          "name": "platformId",
          "type": "uint256"
        },
        {
          "indexed": false,
          "internalType": "uint256",
          "name": "servicePostingFee",
          "type": "uint256"
        }
      ],
      "name": "ServicePostingFeeUpdated",
      "type": "event"
    },
    {
      "anonymous": false,
      "inputs": [
        {
          "indexed": false,
          "internalType": "uint256",
          "name": "platformId",
          "type": "uint256"
        },
        {
          "indexed": false,
          "internalType": "address",
          "name": "signer",
          "type": "address"
        }
      ],
      "name": "SignerUpdated",
      "type": "event"
    },
    {
      "anonymous": false,
      "inputs": [
        {
          "indexed": true,
          "internalType": "address",
          "name": "from",
          "type": "address"
        },
        {
          "indexed": true,
          "internalType": "address",
          "name": "to",
          "type": "address"
        },
        {
          "indexed": true,
          "internalType": "uint256",
          "name": "tokenId",
          "type": "uint256"
        }
      ],
      "name": "Transfer",
      "type": "event"
    },
    {
      "anonymous": false,
      "inputs": [
        {
          "indexed": true,
          "internalType": "address",
          "name": "implementation",
          "type": "address"
        }
      ],
      "name": "Upgraded",
      "type": "event"
    },
    {
      "anonymous": false,
      "inputs": [
        {
          "indexed": true,
          "internalType": "address",
          "name": "user",
          "type": "address"
        }
      ],
      "name": "UserWhitelisted",
      "type": "event"
    },
    {
      "inputs": [],
      "name": "DEFAULT_ADMIN_ROLE",
      "outputs": [
        {
          "internalType": "bytes32",
          "name": "",
          "type": "bytes32"
        }
      ],
      "stateMutability": "view",
      "type": "function"
    },
    {
      "inputs": [],
      "name": "MINT_ROLE",
      "outputs": [
        {
          "internalType": "bytes32",
          "name": "",
          "type": "bytes32"
        }
      ],
      "stateMutability": "view",
      "type": "function"
    },
    {
      "inputs": [
        {
          "internalType": "address",
          "name": "_arbitrator",
          "type": "address"
        },
        {
          "internalType": "bool",
          "name": "_isInternal",
          "type": "bool"
        }
      ],
      "name": "addArbitrator",
      "outputs": [],
      "stateMutability": "nonpayable",
      "type": "function"
    },
    {
      "inputs": [
        {
          "internalType": "address",
          "name": "to",
          "type": "address"
        },
        {
          "internalType": "uint256",
          "name": "tokenId",
          "type": "uint256"
        }
      ],
      "name": "approve",
      "outputs": [],
      "stateMutability": "nonpayable",
      "type": "function"
    },
    {
      "inputs": [
        {
          "internalType": "address",
          "name": "owner",
          "type": "address"
        }
      ],
      "name": "balanceOf",
      "outputs": [
        {
          "internalType": "uint256",
          "name": "",
          "type": "uint256"
        }
      ],
      "stateMutability": "view",
      "type": "function"
    },
    {
      "inputs": [
        {
          "internalType": "uint256",
          "name": "tokenId",
          "type": "uint256"
        }
      ],
      "name": "getApproved",
      "outputs": [
        {
          "internalType": "address",
          "name": "",
          "type": "address"
        }
      ],
      "stateMutability": "view",
      "type": "function"
    },
    {
      "inputs": [
        {
          "internalType": "uint256",
          "name": "_platformId",
          "type": "uint256"
        }
      ],
      "name": "getOriginServiceFeeRate",
      "outputs": [
        {
          "internalType": "uint16",
          "name": "",
          "type": "uint16"
        }
      ],
      "stateMutability": "view",
      "type": "function"
    },
    {
      "inputs": [
        {
          "internalType": "uint256",
          "name": "_platformId",
          "type": "uint256"
        }
      ],
      "name": "getOriginValidatedProposalFeeRate",
      "outputs": [
        {
          "internalType": "uint16",
          "name": "",
          "type": "uint16"
        }
      ],
      "stateMutability": "view",
      "type": "function"
    },
    {
      "inputs": [
        {
          "internalType": "uint256",
          "name": "_platformId",
          "type": "uint256"
        }
      ],
      "name": "getPlatform",
      "outputs": [
        {
          "components": [
            {
              "internalType": "uint256",
              "name": "id",
              "type": "uint256"
            },
            {
              "internalType": "string",
              "name": "name",
              "type": "string"
            },
            {
              "internalType": "string",
              "name": "dataUri",
              "type": "string"
            },
            {
              "internalType": "uint16",
              "name": "originServiceFeeRate",
              "type": "uint16"
            },
            {
              "internalType": "uint16",
              "name": "originValidatedProposalFeeRate",
              "type": "uint16"
            },
            {
              "internalType": "uint256",
              "name": "servicePostingFee",
              "type": "uint256"
            },
            {
              "internalType": "uint256",
              "name": "proposalPostingFee",
              "type": "uint256"
            },
            {
              "internalType": "contract Arbitrator",
              "name": "arbitrator",
              "type": "address"
            },
            {
              "internalType": "bytes",
              "name": "arbitratorExtraData",
              "type": "bytes"
            },
            {
              "internalType": "uint256",
              "name": "arbitrationFeeTimeout",
              "type": "uint256"
            },
            {
              "internalType": "address",
              "name": "signer",
              "type": "address"
            }
          ],
          "internalType": "struct TalentLayerPlatformID.Platform",
          "name": "",
          "type": "tuple"
        }
      ],
      "stateMutability": "view",
      "type": "function"
    },
    {
      "inputs": [
        {
          "internalType": "uint256",
          "name": "_platformId",
          "type": "uint256"
        }
      ],
      "name": "getProposalPostingFee",
      "outputs": [
        {
          "internalType": "uint256",
          "name": "",
          "type": "uint256"
        }
      ],
      "stateMutability": "view",
      "type": "function"
    },
    {
      "inputs": [
        {
          "internalType": "bytes32",
          "name": "role",
          "type": "bytes32"
        }
      ],
      "name": "getRoleAdmin",
      "outputs": [
        {
          "internalType": "bytes32",
          "name": "",
          "type": "bytes32"
        }
      ],
      "stateMutability": "view",
      "type": "function"
    },
    {
      "inputs": [
        {
          "internalType": "uint256",
          "name": "_platformId",
          "type": "uint256"
        }
      ],
      "name": "getServicePostingFee",
      "outputs": [
        {
          "internalType": "uint256",
          "name": "",
          "type": "uint256"
        }
      ],
      "stateMutability": "view",
      "type": "function"
    },
    {
      "inputs": [
        {
          "internalType": "uint256",
          "name": "_platformId",
          "type": "uint256"
        }
      ],
      "name": "getSigner",
      "outputs": [
        {
          "internalType": "address",
          "name": "",
          "type": "address"
        }
      ],
      "stateMutability": "view",
      "type": "function"
    },
    {
      "inputs": [
        {
          "internalType": "bytes32",
          "name": "role",
          "type": "bytes32"
        },
        {
          "internalType": "address",
          "name": "account",
          "type": "address"
        }
      ],
      "name": "grantRole",
      "outputs": [],
      "stateMutability": "nonpayable",
      "type": "function"
    },
    {
      "inputs": [
        {
          "internalType": "bytes32",
          "name": "role",
          "type": "bytes32"
        },
        {
          "internalType": "address",
          "name": "account",
          "type": "address"
        }
      ],
      "name": "hasRole",
      "outputs": [
        {
          "internalType": "bool",
          "name": "",
          "type": "bool"
        }
      ],
      "stateMutability": "view",
      "type": "function"
    },
    {
      "inputs": [
        {
          "internalType": "address",
          "name": "",
          "type": "address"
        }
      ],
      "name": "ids",
      "outputs": [
        {
          "internalType": "uint256",
          "name": "",
          "type": "uint256"
        }
      ],
      "stateMutability": "view",
      "type": "function"
    },
    {
      "inputs": [],
      "name": "initialize",
      "outputs": [],
      "stateMutability": "nonpayable",
      "type": "function"
    },
    {
      "inputs": [
        {
          "internalType": "address",
          "name": "",
          "type": "address"
        }
      ],
      "name": "internalArbitrators",
      "outputs": [
        {
          "internalType": "bool",
          "name": "",
          "type": "bool"
        }
      ],
      "stateMutability": "view",
      "type": "function"
    },
    {
      "inputs": [
        {
          "internalType": "address",
          "name": "owner",
          "type": "address"
        },
        {
          "internalType": "address",
          "name": "operator",
          "type": "address"
        }
      ],
      "name": "isApprovedForAll",
      "outputs": [
        {
          "internalType": "bool",
          "name": "",
          "type": "bool"
        }
      ],
      "stateMutability": "view",
      "type": "function"
    },
    {
      "inputs": [
        {
          "internalType": "uint256",
          "name": "_platformId",
          "type": "uint256"
        }
      ],
      "name": "isValid",
      "outputs": [],
      "stateMutability": "view",
      "type": "function"
    },
    {
      "inputs": [],
      "name": "minArbitrationFeeTimeout",
      "outputs": [
        {
          "internalType": "uint256",
          "name": "",
          "type": "uint256"
        }
      ],
      "stateMutability": "view",
      "type": "function"
    },
    {
      "inputs": [
        {
          "internalType": "string",
          "name": "_platformName",
          "type": "string"
        }
      ],
      "name": "mint",
      "outputs": [
        {
          "internalType": "uint256",
          "name": "",
          "type": "uint256"
        }
      ],
      "stateMutability": "payable",
      "type": "function"
    },
    {
      "inputs": [],
      "name": "mintFee",
      "outputs": [
        {
          "internalType": "uint256",
          "name": "",
          "type": "uint256"
        }
      ],
      "stateMutability": "view",
      "type": "function"
    },
    {
      "inputs": [
        {
          "internalType": "string",
          "name": "_platformName",
          "type": "string"
        },
        {
          "internalType": "address",
          "name": "_platformAddress",
          "type": "address"
        }
      ],
      "name": "mintForAddress",
      "outputs": [
        {
          "internalType": "uint256",
          "name": "",
          "type": "uint256"
        }
      ],
      "stateMutability": "payable",
      "type": "function"
    },
    {
      "inputs": [],
      "name": "mintStatus",
      "outputs": [
        {
          "internalType": "enum TalentLayerPlatformID.MintStatus",
          "name": "",
          "type": "uint8"
        }
      ],
      "stateMutability": "view",
      "type": "function"
    },
    {
      "inputs": [],
      "name": "name",
      "outputs": [
        {
          "internalType": "string",
          "name": "",
          "type": "string"
        }
      ],
      "stateMutability": "view",
      "type": "function"
    },
    {
      "inputs": [
        {
          "internalType": "uint256",
          "name": "tokenId",
          "type": "uint256"
        }
      ],
      "name": "ownerOf",
      "outputs": [
        {
          "internalType": "address",
          "name": "",
          "type": "address"
        }
      ],
      "stateMutability": "view",
      "type": "function"
    },
    {
      "inputs": [
        {
          "internalType": "uint256",
          "name": "",
          "type": "uint256"
        }
      ],
      "name": "platforms",
      "outputs": [
        {
          "internalType": "uint256",
          "name": "id",
          "type": "uint256"
        },
        {
          "internalType": "string",
          "name": "name",
          "type": "string"
        },
        {
          "internalType": "string",
          "name": "dataUri",
          "type": "string"
        },
        {
          "internalType": "uint16",
          "name": "originServiceFeeRate",
          "type": "uint16"
        },
        {
          "internalType": "uint16",
          "name": "originValidatedProposalFeeRate",
          "type": "uint16"
        },
        {
          "internalType": "uint256",
          "name": "servicePostingFee",
          "type": "uint256"
        },
        {
          "internalType": "uint256",
          "name": "proposalPostingFee",
          "type": "uint256"
        },
        {
          "internalType": "contract Arbitrator",
          "name": "arbitrator",
          "type": "address"
        },
        {
          "internalType": "bytes",
          "name": "arbitratorExtraData",
          "type": "bytes"
        },
        {
          "internalType": "uint256",
          "name": "arbitrationFeeTimeout",
          "type": "uint256"
        },
        {
          "internalType": "address",
          "name": "signer",
          "type": "address"
        }
      ],
      "stateMutability": "view",
      "type": "function"
    },
    {
      "inputs": [],
      "name": "proxiableUUID",
      "outputs": [
        {
          "internalType": "bytes32",
          "name": "",
          "type": "bytes32"
        }
      ],
      "stateMutability": "view",
      "type": "function"
    },
    {
      "inputs": [
        {
          "internalType": "address",
          "name": "_arbitrator",
          "type": "address"
        }
      ],
      "name": "removeArbitrator",
      "outputs": [],
      "stateMutability": "nonpayable",
      "type": "function"
    },
    {
      "inputs": [
        {
          "internalType": "bytes32",
          "name": "role",
          "type": "bytes32"
        },
        {
          "internalType": "address",
          "name": "account",
          "type": "address"
        }
      ],
      "name": "renounceRole",
      "outputs": [],
      "stateMutability": "nonpayable",
      "type": "function"
    },
    {
      "inputs": [
        {
          "internalType": "bytes32",
          "name": "role",
          "type": "bytes32"
        },
        {
          "internalType": "address",
          "name": "account",
          "type": "address"
        }
      ],
      "name": "revokeRole",
      "outputs": [],
      "stateMutability": "nonpayable",
      "type": "function"
    },
    {
      "inputs": [
        {
          "internalType": "address",
          "name": "from",
          "type": "address"
        },
        {
          "internalType": "address",
          "name": "to",
          "type": "address"
        },
        {
          "internalType": "uint256",
          "name": "tokenId",
          "type": "uint256"
        }
      ],
      "name": "safeTransferFrom",
      "outputs": [],
      "stateMutability": "nonpayable",
      "type": "function"
    },
    {
      "inputs": [
        {
          "internalType": "address",
          "name": "from",
          "type": "address"
        },
        {
          "internalType": "address",
          "name": "to",
          "type": "address"
        },
        {
          "internalType": "uint256",
          "name": "tokenId",
          "type": "uint256"
        },
        {
          "internalType": "bytes",
          "name": "data",
          "type": "bytes"
        }
      ],
      "name": "safeTransferFrom",
      "outputs": [],
      "stateMutability": "nonpayable",
      "type": "function"
    },
    {
      "inputs": [
        {
          "internalType": "address",
          "name": "operator",
          "type": "address"
        },
        {
          "internalType": "bool",
          "name": "approved",
          "type": "bool"
        }
      ],
      "name": "setApprovalForAll",
      "outputs": [],
      "stateMutability": "nonpayable",
      "type": "function"
    },
    {
      "inputs": [
        {
          "internalType": "bytes4",
          "name": "interfaceId",
          "type": "bytes4"
        }
      ],
      "name": "supportsInterface",
      "outputs": [
        {
          "internalType": "bool",
          "name": "",
          "type": "bool"
        }
      ],
      "stateMutability": "view",
      "type": "function"
    },
    {
      "inputs": [],
      "name": "symbol",
      "outputs": [
        {
          "internalType": "string",
          "name": "",
          "type": "string"
        }
      ],
      "stateMutability": "view",
      "type": "function"
    },
    {
      "inputs": [
        {
          "internalType": "string",
          "name": "",
          "type": "string"
        }
      ],
      "name": "takenNames",
      "outputs": [
        {
          "internalType": "bool",
          "name": "",
          "type": "bool"
        }
      ],
      "stateMutability": "view",
      "type": "function"
    },
    {
      "inputs": [
        {
          "internalType": "uint256",
          "name": "tokenId",
          "type": "uint256"
        }
      ],
      "name": "tokenURI",
      "outputs": [
        {
          "internalType": "string",
          "name": "",
          "type": "string"
        }
      ],
      "stateMutability": "view",
      "type": "function"
    },
    {
      "inputs": [],
      "name": "totalSupply",
      "outputs": [
        {
          "internalType": "uint256",
          "name": "",
          "type": "uint256"
        }
      ],
      "stateMutability": "view",
      "type": "function"
    },
    {
      "inputs": [
        {
          "internalType": "address",
          "name": "from",
          "type": "address"
        },
        {
          "internalType": "address",
          "name": "to",
          "type": "address"
        },
        {
          "internalType": "uint256",
          "name": "tokenId",
          "type": "uint256"
        }
      ],
      "name": "transferFrom",
      "outputs": [],
      "stateMutability": "nonpayable",
      "type": "function"
    },
    {
      "inputs": [
        {
          "internalType": "uint256",
          "name": "_platformId",
          "type": "uint256"
        },
        {
          "internalType": "uint256",
          "name": "_arbitrationFeeTimeout",
          "type": "uint256"
        }
      ],
      "name": "updateArbitrationFeeTimeout",
      "outputs": [],
      "stateMutability": "nonpayable",
      "type": "function"
    },
    {
      "inputs": [
        {
          "internalType": "uint256",
          "name": "_platformId",
          "type": "uint256"
        },
        {
          "internalType": "contract Arbitrator",
          "name": "_arbitrator",
          "type": "address"
        },
        {
          "internalType": "bytes",
          "name": "_extraData",
          "type": "bytes"
        }
      ],
      "name": "updateArbitrator",
      "outputs": [],
      "stateMutability": "nonpayable",
      "type": "function"
    },
    {
      "inputs": [
        {
          "internalType": "uint256",
          "name": "_minArbitrationFeeTimeout",
          "type": "uint256"
        }
      ],
      "name": "updateMinArbitrationFeeTimeout",
      "outputs": [],
      "stateMutability": "nonpayable",
      "type": "function"
    },
    {
      "inputs": [
        {
          "internalType": "uint256",
          "name": "_mintFee",
          "type": "uint256"
        }
      ],
      "name": "updateMintFee",
      "outputs": [],
      "stateMutability": "nonpayable",
      "type": "function"
    },
    {
      "inputs": [
        {
          "internalType": "enum TalentLayerPlatformID.MintStatus",
          "name": "_mintStatus",
          "type": "uint8"
        }
      ],
      "name": "updateMintStatus",
      "outputs": [],
      "stateMutability": "nonpayable",
      "type": "function"
    },
    {
      "inputs": [
        {
          "internalType": "uint256",
          "name": "_platformId",
          "type": "uint256"
        },
        {
          "internalType": "uint16",
          "name": "_originServiceFeeRate",
          "type": "uint16"
        }
      ],
      "name": "updateOriginServiceFeeRate",
      "outputs": [],
      "stateMutability": "nonpayable",
      "type": "function"
    },
    {
      "inputs": [
        {
          "internalType": "uint256",
          "name": "_platformId",
          "type": "uint256"
        },
        {
          "internalType": "uint16",
          "name": "_originValidatedProposalFeeRate",
          "type": "uint16"
        }
      ],
      "name": "updateOriginValidatedProposalFeeRate",
      "outputs": [],
      "stateMutability": "nonpayable",
      "type": "function"
    },
    {
      "inputs": [
        {
          "internalType": "uint256",
          "name": "_platformId",
          "type": "uint256"
        },
        {
          "internalType": "string",
          "name": "_newCid",
          "type": "string"
        }
      ],
      "name": "updateProfileData",
      "outputs": [],
      "stateMutability": "nonpayable",
      "type": "function"
    },
    {
      "inputs": [
        {
          "internalType": "uint256",
          "name": "_platformId",
          "type": "uint256"
        },
        {
          "internalType": "uint256",
          "name": "_proposalPostingFee",
          "type": "uint256"
        }
      ],
      "name": "updateProposalPostingFee",
      "outputs": [],
      "stateMutability": "nonpayable",
      "type": "function"
    },
    {
      "inputs": [
        {
          "internalType": "uint256",
          "name": "_platformId",
          "type": "uint256"
        },
        {
          "internalType": "uint256",
          "name": "_servicePostingFee",
          "type": "uint256"
        }
      ],
      "name": "updateServicePostingFee",
      "outputs": [],
      "stateMutability": "nonpayable",
      "type": "function"
    },
    {
      "inputs": [
        {
          "internalType": "uint256",
          "name": "_platformId",
          "type": "uint256"
        },
        {
          "internalType": "address",
          "name": "_signer",
          "type": "address"
        }
      ],
      "name": "updateSigner",
      "outputs": [],
      "stateMutability": "nonpayable",
      "type": "function"
    },
    {
      "inputs": [
        {
          "internalType": "address",
          "name": "newImplementation",
          "type": "address"
        }
      ],
      "name": "upgradeTo",
      "outputs": [],
      "stateMutability": "nonpayable",
      "type": "function"
    },
    {
      "inputs": [
        {
          "internalType": "address",
          "name": "newImplementation",
          "type": "address"
        },
        {
          "internalType": "bytes",
          "name": "data",
          "type": "bytes"
        }
      ],
      "name": "upgradeToAndCall",
      "outputs": [],
      "stateMutability": "payable",
      "type": "function"
    },
    {
      "inputs": [
        {
          "internalType": "address",
          "name": "",
          "type": "address"
        }
      ],
      "name": "validArbitrators",
      "outputs": [
        {
          "internalType": "bool",
          "name": "",
          "type": "bool"
        }
      ],
      "stateMutability": "view",
      "type": "function"
    },
    {
      "inputs": [
        {
          "internalType": "address",
          "name": "",
          "type": "address"
        }
      ],
      "name": "whitelist",
      "outputs": [
        {
          "internalType": "bool",
          "name": "",
          "type": "bool"
        }
      ],
      "stateMutability": "view",
      "type": "function"
    },
    {
      "inputs": [
        {
          "internalType": "address",
          "name": "_user",
          "type": "address"
        }
      ],
      "name": "whitelistUser",
      "outputs": [],
      "stateMutability": "nonpayable",
      "type": "function"
    },
    {
      "inputs": [],
      "name": "withdraw",
      "outputs": [],
      "stateMutability": "nonpayable",
      "type": "function"
    }
  ],
  "bytecode": "0x60a0604052306080523480156200001557600080fd5b506200002062000026565b620000e8565b600054610100900460ff1615620000935760405162461bcd60e51b815260206004820152602760248201527f496e697469616c697a61626c653a20636f6e747261637420697320696e697469604482015266616c697a696e6760c81b606482015260840160405180910390fd5b60005460ff9081161015620000e6576000805460ff191660ff9081179091556040519081527f7f26b83ff96e1f2b6a682f133852f6798a09c465da95921460cefb38474024989060200160405180910390a15b565b608051614dbb6200012060003960008181610ed001528181610f10015281816112e00152818161132001526113af0152614dbb6000f3fe6080604052600436106103815760003560e01c80638a986363116101d1578063b88d4fde11610102578063dce22638116100a0578063f577a5001161006f578063f577a50014610ae5578063f6f3784414610b05578063f905f15414610b1c578063faa992d314610b3c57600080fd5b8063dce2263814610a28578063e985e9c514610a48578063e9a9c85014610a91578063f160068f14610ac557600080fd5b8063c87b56dd116100dc578063c87b56dd146109b5578063cb8faafa146109d5578063d547741f146109f5578063d85d3d2714610a1557600080fd5b8063b88d4fde14610962578063c37e154e14610982578063c6bf01ce1461099557600080fd5b80639b19251a1161016f578063a22cb46511610149578063a22cb465146108b5578063a383c692146108d5578063a4f524a914610911578063acd63f1b1461093157600080fd5b80639b19251a146108475780639da3f8fd14610878578063a217fddf146108a057600080fd5b806391d14854116101ab57806391d14854146107d257806395d89b41146107f2578063973ad2701461080757806399ded4441461082757600080fd5b80638a986363146107725780638e6e5397146107925780638f283a86146107b257600080fd5b80633ccfd60b116102b65780634a7ab1d5116102545780636352211e116102235780636352211e146106fd57806370a082311461071d5780638129fc1c1461073d57806384017e521461075257600080fd5b80634a7ab1d5146106885780634f1ef286146106a857806352d1902d146106bb5780635bd22c98146106d057600080fd5b80633ffefe4e116102905780633ffefe4e146105f757806342842e0e1461061757806348203b30146106375780634a4c560d1461066857600080fd5b80633ccfd60b146105a25780633d459389146105b75780633e6acfe0146105d757600080fd5b806318160ddd11610323578063248a9ca3116102fd578063248a9ca3146105125780632f2ff15d1461054257806336568abe146105625780633659cfe61461058257600080fd5b806318160ddd146104af5780631847c06b146104c457806323b872dd146104f257600080fd5b8063081812fc1161035f578063081812fc146103ff578063095ea7b31461043757806311f821921461045757806313966db51461048a57600080fd5b806301c32c851461038657806301ffc9a7146103a857806306fdde03146103dd575b600080fd5b34801561039257600080fd5b506103a66103a1366004613aa7565b610b73565b005b3480156103b457600080fd5b506103c86103c3366004613ad6565b610bbc565b60405190151581526020015b60405180910390f35b3480156103e957600080fd5b506103f2610bdc565b6040516103d49190613b43565b34801561040b57600080fd5b5061041f61041a366004613aa7565b610c6e565b6040516001600160a01b0390911681526020016103d4565b34801561044357600080fd5b506103a6610452366004613b6b565b610c95565b34801561046357600080fd5b50610477610472366004613aa7565b610daf565b60405161ffff90911681526020016103d4565b34801561049657600080fd5b506104a16101335481565b6040519081526020016103d4565b3480156104bb57600080fd5b506104a1610dd5565b3480156104d057600080fd5b506104a16104df366004613b97565b6101326020526000908152604090205481565b3480156104fe57600080fd5b506103a661050d366004613bb4565b610df2565b34801561051e57600080fd5b506104a161052d366004613aa7565b60009081526097602052604090206001015490565b34801561054e57600080fd5b506103a661055d366004613bf5565b610e23565b34801561056e57600080fd5b506103a661057d366004613bf5565b610e48565b34801561058e57600080fd5b506103a661059d366004613b97565b610ec6565b3480156105ae57600080fd5b506103a6610fa5565b3480156105c357600080fd5b506104776105d2366004613aa7565b611048565b3480156105e357600080fd5b506103a66105f2366004613cc8565b611074565b34801561060357600080fd5b5061041f610612366004613aa7565b611215565b34801561062357600080fd5b506103a6610632366004613bb4565b611240565b34801561064357600080fd5b506103c8610652366004613b97565b61012f6020526000908152604090205460ff1681565b34801561067457600080fd5b506103a6610683366004613b97565b61125b565b34801561069457600080fd5b506104a16106a3366004613aa7565b6112b4565b6103a66106b6366004613d21565b6112d6565b3480156106c757600080fd5b506104a16113a2565b3480156106dc57600080fd5b506106f06106eb366004613aa7565b611455565b6040516103d49190613d71565b34801561070957600080fd5b5061041f610718366004613aa7565b611721565b34801561072957600080fd5b506104a1610738366004613b97565b611781565b34801561074957600080fd5b506103a6611807565b34801561075e57600080fd5b506103a661076d366004613aa7565b611a0d565b34801561077e57600080fd5b506104a161078d366004613aa7565b611a4e565b34801561079e57600080fd5b506103a66107ad366004613e66565b611a70565b3480156107be57600080fd5b506103a66107cd366004613bf5565b611b03565b3480156107de57600080fd5b506103c86107ed366004613bf5565b611b97565b3480156107fe57600080fd5b506103f2611bc2565b34801561081357600080fd5b506103a6610822366004613b97565b611bd1565b34801561083357600080fd5b506103a6610842366004613e66565b611c41565b34801561085357600080fd5b506103c8610862366004613b97565b6101306020526000908152604090205460ff1681565b34801561088457600080fd5b50610136546108939060ff1681565b6040516103d49190613ea8565b3480156108ac57600080fd5b506104a1600081565b3480156108c157600080fd5b506103a66108d0366004613ed0565b611cd5565b3480156108e157600080fd5b506103c86108f0366004613f03565b805160208183018101805161012d8252928201919093012091525460ff1681565b34801561091d57600080fd5b506103a661092c366004613f38565b611ce0565b34801561093d57600080fd5b506103c861094c366004613b97565b6101316020526000908152604090205460ff1681565b34801561096e57600080fd5b506103a661097d366004613f5a565b611dcd565b6104a161099036600461400f565b611e05565b3480156109a157600080fd5b506103a66109b0366004613f38565b61204b565b3480156109c157600080fd5b506103f26109d0366004613aa7565b6120c8565b3480156109e157600080fd5b506103a66109f0366004613ed0565b6120d3565b348015610a0157600080fd5b506103a6610a10366004613bf5565b612150565b6104a1610a23366004614066565b612175565b348015610a3457600080fd5b506103a6610a43366004613f38565b61238a565b348015610a5457600080fd5b506103c8610a633660046140a8565b6001600160a01b039182166000908152606a6020908152604080832093909416825291909152205460ff1690565b348015610a9d57600080fd5b506104a17f154c00819833dac601ee5ddded6fda79d9d8b506b911b3dbd54cdb95fe6c368681565b348015610ad157600080fd5b506103a6610ae03660046140d6565b612407565b348015610af157600080fd5b506103a6610b00366004613aa7565b6124d1565b348015610b1157600080fd5b506104a16101345481565b348015610b2857600080fd5b506103a6610b37366004614107565b612525565b348015610b4857600080fd5b50610b5c610b57366004613aa7565b612584565b6040516103d49b9a99989796959493929190614128565b6000610b7e81612791565b6101348290556040518281527fa39eb462f98ec2e2a17ca5c7f2a0a247d212213bf0c78a6e2a3df704911ef601906020015b60405180910390a15050565b6000610bc78261279b565b80610bd65750610bd6826127eb565b92915050565b606060658054610beb906141c0565b80601f0160208091040260200160405190810160405280929190818152602001828054610c17906141c0565b8015610c645780601f10610c3957610100808354040283529160200191610c64565b820191906000526020600020905b815481529060010190602001808311610c4757829003601f168201915b5050505050905090565b6000610c7982612810565b506000908152606960205260409020546001600160a01b031690565b6000610ca082611721565b9050806001600160a01b0316836001600160a01b031603610d125760405162461bcd60e51b815260206004820152602160248201527f4552433732313a20617070726f76616c20746f2063757272656e74206f776e656044820152603960f91b60648201526084015b60405180910390fd5b336001600160a01b0382161480610d2e5750610d2e8133610a63565b610da05760405162461bcd60e51b815260206004820152603d60248201527f4552433732313a20617070726f76652063616c6c6572206973206e6f7420746f60448201527f6b656e206f776e6572206f7220617070726f76656420666f7220616c6c0000006064820152608401610d09565b610daa838361286f565b505050565b6000610dba826124d1565b50600090815261012e602052604090206003015461ffff1690565b60006001610de36101355490565b610ded9190614210565b905090565b610dfc33826128dd565b610e185760405162461bcd60e51b8152600401610d0990614223565b610daa83838361295c565b600082815260976020526040902060010154610e3e81612791565b610daa83836129a4565b6001600160a01b0381163314610eb85760405162461bcd60e51b815260206004820152602f60248201527f416363657373436f6e74726f6c3a2063616e206f6e6c792072656e6f756e636560448201526e103937b632b9903337b91039b2b63360891b6064820152608401610d09565b610ec28282612a2a565b5050565b6001600160a01b037f0000000000000000000000000000000000000000000000000000000000000000163003610f0e5760405162461bcd60e51b8152600401610d0990614270565b7f00000000000000000000000000000000000000000000000000000000000000006001600160a01b0316610f57600080516020614cff833981519152546001600160a01b031690565b6001600160a01b031614610f7d5760405162461bcd60e51b8152600401610d09906142bc565b610f8681612a91565b60408051600080825260208201909252610fa291839190612a9c565b50565b6000610fb081612791565b604051600090339047908381818185875af1925050503d8060008114610ff2576040519150601f19603f3d011682016040523d82523d6000602084013e610ff7565b606091505b5050905080610ec25760405162461bcd60e51b815260206004820152601860248201527f4661696c656420746f20776974686472617720457468657200000000000000006044820152606401610d09565b6000611053826124d1565b50600090815261012e602052604090206003015462010000900461ffff1690565b823361107f82611721565b6001600160a01b0316146110a55760405162461bcd60e51b8152600401610d0990614308565b6001600160a01b038316600090815261012f602052604090205460ff166111205760405162461bcd60e51b815260206004820152602960248201527f5468652061646472657373206d757374206265206f6620612076616c69642061604482015268393134ba3930ba37b960b91b6064820152608401610d09565b600084815261012e6020908152604080832060060180546001600160a01b0319166001600160a01b038816908117909155835261013190915290205460ff16156111a05760408051602081018690520160408051601f19818403018152918152600086815261012e602052206007019061119a9082614375565b506111be565b600084815261012e602052604090206007016111bc8382614375565b505b7f4f1d179d53629f07a3ca3cde19840349df6dadc8fc11ac201c272ec77b8673d2848461012e600088815260200190815260200160002060070160405161120793929190614435565b60405180910390a150505050565b6000611220826124d1565b50600090815261012e60205260409020600901546001600160a01b031690565b610daa83838360405180602001604052806000815250611dcd565b600061126681612791565b6001600160a01b03821660008181526101306020526040808220805460ff19166001179055517f7409cb8e690bcd1487fd4fd27dad3fa92388d201ba6f953631d6d6b26299f8499190a25050565b60006112bf826124d1565b50600090815261012e602052604090206005015490565b6001600160a01b037f000000000000000000000000000000000000000000000000000000000000000016300361131e5760405162461bcd60e51b8152600401610d0990614270565b7f00000000000000000000000000000000000000000000000000000000000000006001600160a01b0316611367600080516020614cff833981519152546001600160a01b031690565b6001600160a01b03161461138d5760405162461bcd60e51b8152600401610d09906142bc565b61139682612a91565b610ec282826001612a9c565b6000306001600160a01b037f000000000000000000000000000000000000000000000000000000000000000016146114425760405162461bcd60e51b815260206004820152603860248201527f555550535570677261646561626c653a206d757374206e6f742062652063616c60448201527f6c6564207468726f7567682064656c656761746563616c6c00000000000000006064820152608401610d09565b50600080516020614cff83398151915290565b6114cc604051806101600160405280600081526020016060815260200160608152602001600061ffff168152602001600061ffff168152602001600081526020016000815260200160006001600160a01b03168152602001606081526020016000815260200160006001600160a01b031681525090565b6114d5826124d1565b61012e6000838152602001908152602001600020604051806101600160405290816000820154815260200160018201805461150f906141c0565b80601f016020809104026020016040519081016040528092919081815260200182805461153b906141c0565b80156115885780601f1061155d57610100808354040283529160200191611588565b820191906000526020600020905b81548152906001019060200180831161156b57829003601f168201915b505050505081526020016002820180546115a1906141c0565b80601f01602080910402602001604051908101604052809291908181526020018280546115cd906141c0565b801561161a5780601f106115ef5761010080835404028352916020019161161a565b820191906000526020600020905b8154815290600101906020018083116115fd57829003601f168201915b5050509183525050600382015461ffff808216602084015262010000909104166040820152600482015460608201526005820154608082015260068201546001600160a01b031660a082015260078201805460c09092019161167b906141c0565b80601f01602080910402602001604051908101604052809291908181526020018280546116a7906141c0565b80156116f45780601f106116c9576101008083540402835291602001916116f4565b820191906000526020600020905b8154815290600101906020018083116116d757829003601f168201915b5050509183525050600882015460208201526009909101546001600160a01b031660409091015292915050565b6000818152606760205260408120546001600160a01b031680610bd65760405162461bcd60e51b8152602060048201526018602482015277115490cdcc8c4e881a5b9d985b1a59081d1bdad95b88125160421b6044820152606401610d09565b60006001600160a01b0382166117eb5760405162461bcd60e51b815260206004820152602960248201527f4552433732313a2061646472657373207a65726f206973206e6f7420612076616044820152683634b21037bbb732b960b91b6064820152608401610d09565b506001600160a01b031660009081526068602052604090205490565b600054610100900460ff16158080156118275750600054600160ff909116105b806118415750303b158015611841575060005460ff166001145b6118a45760405162461bcd60e51b815260206004820152602e60248201527f496e697469616c697a61626c653a20636f6e747261637420697320616c72656160448201526d191e481a5b9a5d1a585b1a5e995960921b6064820152608401610d09565b6000805460ff1916600117905580156118c7576000805461ff0019166101001790555b61191b6040518060400160405280601581526020017415185b195b9d13185e595c941b185d199bdc9b5251605a1b81525060405180604001604052806005815260200164151314125160da1b815250612c07565b611923612c38565b61192b612c38565b611936600033612c61565b6119607f154c00819833dac601ee5ddded6fda79d9d8b506b911b3dbd54cdb95fe6c368633612c61565b6000610133819055805261012f6020527fe9104285c6851efcbc5e0e70440200efbdcab556a1c8784776780f8bb44f2931805460ff191660011790556119a8620d2f00610b73565b6119b761013580546001019055565b610136805460ff191660011790558015610fa2576000805461ff0019169055604051600181527f7f26b83ff96e1f2b6a682f133852f6798a09c465da95921460cefb38474024989060200160405180910390a150565b6000611a1881612791565b6101338290556040518281527f38fbb1c8b109c430f0c030e7ed076cf5611a307773a4e8e365601e8f8bceaec690602001610bb0565b6000611a59826124d1565b50600090815261012e602052604090206004015490565b8133611a7b82611721565b6001600160a01b031614611aa15760405162461bcd60e51b8152600401610d0990614308565b600083815261012e6020908152604091829020600301805461ffff191661ffff86169081179091558251868152918201527f03c3aa7c7830e29d1571bfe33dc72a8b8e0297dd6fdf26ef720dee976e21125a91015b60405180910390a1505050565b8133611b0e82611721565b6001600160a01b031614611b345760405162461bcd60e51b8152600401610d0990614308565b600083815261012e602090815260409182902060090180546001600160a01b0319166001600160a01b0386169081179091558251868152918201527f793c7e64f530286f5392e4266e68cf1d6d1f08a9c5494c8b916d4b86f546cb3e9101611af6565b60009182526097602090815260408084206001600160a01b0393909316845291905290205460ff1690565b606060668054610beb906141c0565b6000611bdc81612791565b6001600160a01b038216600081815261012f60209081526040808320805460ff19908116909155610131835292819020805490931690925590519182527f715484adb5bc9cc29af577725dbf8486d0b82eca3ba79f65846e92ff38ef32b59101610bb0565b8133611c4c82611721565b6001600160a01b031614611c725760405162461bcd60e51b8152600401610d0990614308565b600083815261012e6020908152604091829020600301805463ffff000019166201000061ffff8716908102919091179091558251868152918201527fffeae29561efc186d4d5241d242f7e2b4a76f114ea5de0db37fbd19c3b1913a59101611af6565b610ec2338383612c6b565b8133611ceb82611721565b6001600160a01b031614611d115760405162461bcd60e51b8152600401610d0990614308565b61013454821015611d815760405162461bcd60e51b815260206004820152603460248201527f5468652074696d656f7574206d7573742062652067726561746572207468616e604482015273081d1a19481b5a5b9a5b5d5b481d1a5b595bdd5d60621b6064820152608401610d09565b600083815261012e602090815260409182902060080184905581518581529081018490527face552c85eed7b5cf46330833e6f28b1f5ce696a4532e483192b5a64e4565e599101611af6565b611dd733836128dd565b611df35760405162461bcd60e51b8152600401610d0990614223565b611dff84848484612d39565b50505050565b600083838360016101365460ff166002811115611e2457611e24613e92565b1480611e47575060026101365460ff166002811115611e4557611e45613e92565b145b611e8e5760405162461bcd60e51b8152602060048201526018602482015277135a5b9d081cdd185d1d5cc81a5cc81b9bdd081d985b1a5960421b6044820152606401610d09565b60016101365460ff166002811115611ea857611ea8613e92565b03611f0757336000908152610130602052604090205460ff16611f075760405162461bcd60e51b8152602060048201526017602482015276165bdd48185c99481b9bdd081dda1a5d195b1a5cdd1959604a1b6044820152606401610d09565b610133543414611f295760405162461bcd60e51b8152600401610d09906144d7565b611f3281611781565b15611f4f5760405162461bcd60e51b8152600401610d099061451b565b61012d8383604051611f6292919061455d565b9081526040519081900360200190205460ff1615611fb75760405162461bcd60e51b81526020600482015260126024820152712730b6b29030b63932b0b23c903a30b5b2b760711b6044820152606401610d09565b611fc18383612d6c565b7f154c00819833dac601ee5ddded6fda79d9d8b506b911b3dbd54cdb95fe6c3686611feb81612791565b611ffe86611ff96101355490565b612f8e565b61203f88888080601f0160208091040260200160405190810160405280939291908181526020018383808284376000920191909152508a9250613127915050565b98975050505050505050565b813361205682611721565b6001600160a01b03161461207c5760405162461bcd60e51b8152600401610d0990614308565b600083815261012e602090815260409182902060050184905581518581529081018490527f5cea455bfd7800a5b219f99906f1402cf18c09764b07b36821dc7285b86a77329101611af6565b6060610bd68261321b565b60006120de81612791565b6001600160a01b038316600081815261012f60209081526040808320805460ff1990811660011790915561013183529281902080548715159416841790558051938452908301919091527ff2c127b854bc85c8ad2528498b5f4e6c30f2973304e882c8e26278c6472e8b339101611af6565b60008281526097602052604090206001015461216b81612791565b610daa8383612a2a565b600082823360016101365460ff16600281111561219457612194613e92565b14806121b7575060026101365460ff1660028111156121b5576121b5613e92565b145b6121fe5760405162461bcd60e51b8152602060048201526018602482015277135a5b9d081cdd185d1d5cc81a5cc81b9bdd081d985b1a5960421b6044820152606401610d09565b60016101365460ff16600281111561221857612218613e92565b0361227757336000908152610130602052604090205460ff166122775760405162461bcd60e51b8152602060048201526017602482015276165bdd48185c99481b9bdd081dda1a5d195b1a5cdd1959604a1b6044820152606401610d09565b6101335434146122995760405162461bcd60e51b8152600401610d09906144d7565b6122a281611781565b156122bf5760405162461bcd60e51b8152600401610d099061451b565b61012d83836040516122d292919061455d565b9081526040519081900360200190205460ff16156123275760405162461bcd60e51b81526020600482015260126024820152712730b6b29030b63932b0b23c903a30b5b2b760711b6044820152606401610d09565b6123318383612d6c565b61233f33611ff96101355490565b61238086868080601f016020809104026020016040519081016040528093929190818152602001838380828437600092019190915250339250613127915050565b9695505050505050565b813361239582611721565b6001600160a01b0316146123bb5760405162461bcd60e51b8152600401610d0990614308565b600083815261012e602090815260409182902060040184905581518581529081018490527fccc64c8fc3688d9eb2c0bb58ff0dfef1a8528bcc06528d991da400c83835838d9101611af6565b813361241282611721565b6001600160a01b0316146124385760405162461bcd60e51b8152600401610d0990614308565b8151602e146124775760405162461bcd60e51b815260206004820152600b60248201526a125b9d985b1a590818da5960aa1b6044820152606401610d09565b600083815261012e602052604090206002016124938382614375565b50827f613807bd6768f626264e7eb664a65ca99a0d930f8fd8a5b868491a592eb57f72836040516124c49190613b43565b60405180910390a2505050565b6000811180156124e357506101355481105b610fa25760405162461bcd60e51b8152602060048201526013602482015272125b9d985b1a59081c1b185d199bdc9b481251606a1b6044820152606401610d09565b600061253081612791565b610136805483919060ff1916600183600281111561255057612550613e92565b02179055507fbe5bfaa294dd4b792e98f2bcf8f597b2ead214107f9bc9e8392d6ec65e8d854f82604051610bb09190613ea8565b61012e60205260009081526040902080546001820180549192916125a7906141c0565b80601f01602080910402602001604051908101604052809291908181526020018280546125d3906141c0565b80156126205780601f106125f557610100808354040283529160200191612620565b820191906000526020600020905b81548152906001019060200180831161260357829003601f168201915b505050505090806002018054612635906141c0565b80601f0160208091040260200160405190810160405280929190818152602001828054612661906141c0565b80156126ae5780601f10612683576101008083540402835291602001916126ae565b820191906000526020600020905b81548152906001019060200180831161269157829003601f168201915b505050506003830154600484015460058501546006860154600787018054969761ffff8087169862010000909704169650939492936001600160a01b03909216926126f8906141c0565b80601f0160208091040260200160405190810160405280929190818152602001828054612724906141c0565b80156127715780601f1061274657610100808354040283529160200191612771565b820191906000526020600020905b81548152906001019060200180831161275457829003601f168201915b5050505060088301546009909301549192916001600160a01b031690508b565b610fa2813361334a565b60006001600160e01b031982166380ac58cd60e01b14806127cc57506001600160e01b03198216635b5e139f60e01b145b80610bd657506301ffc9a760e01b6001600160e01b0319831614610bd6565b60006001600160e01b03198216637965db0b60e01b1480610bd65750610bd68261279b565b6000818152606760205260409020546001600160a01b0316610fa25760405162461bcd60e51b8152602060048201526018602482015277115490cdcc8c4e881a5b9d985b1a59081d1bdad95b88125160421b6044820152606401610d09565b600081815260696020526040902080546001600160a01b0319166001600160a01b03841690811790915581906128a482611721565b6001600160a01b03167f8c5be1e5ebec7d5bd14f71427d1e84f3dd0314c0f7b2291e5b200ac8c7c3b92560405160405180910390a45050565b6000806128e983611721565b9050806001600160a01b0316846001600160a01b0316148061293057506001600160a01b038082166000908152606a602090815260408083209388168352929052205460ff165b806129545750836001600160a01b031661294984610c6e565b6001600160a01b0316145b949350505050565b60405162461bcd60e51b815260206004820152601d60248201527f546f6b656e207472616e73666572206973206e6f7420616c6c6f7765640000006044820152606401610d09565b6129ae8282611b97565b610ec25760008281526097602090815260408083206001600160a01b03851684529091529020805460ff191660011790556129e63390565b6001600160a01b0316816001600160a01b0316837f2f8788117e7eff1d82e926ec794901d17c78024a50270940304540a733656f0d60405160405180910390a45050565b612a348282611b97565b15610ec25760008281526097602090815260408083206001600160a01b0385168085529252808320805460ff1916905551339285917ff6391f5c32d9c69d2a47ea670b442974b53935d1edc7fd64eb21e047a839171b9190a45050565b6000610ec281612791565b7f4910fdfa16fed3260ed0e7147f7cc6da11a60208b5b9406d12a635614ffd91435460ff1615612acf57610daa836133a3565b826001600160a01b03166352d1902d6040518163ffffffff1660e01b8152600401602060405180830381865afa925050508015612b29575060408051601f3d908101601f19168201909252612b269181019061456d565b60015b612b8c5760405162461bcd60e51b815260206004820152602e60248201527f45524331393637557067726164653a206e657720696d706c656d656e7461746960448201526d6f6e206973206e6f74205555505360901b6064820152608401610d09565b600080516020614cff8339815191528114612bfb5760405162461bcd60e51b815260206004820152602960248201527f45524331393637557067726164653a20756e737570706f727465642070726f786044820152681a58589b195555525160ba1b6064820152608401610d09565b50610daa83838361343f565b600054610100900460ff16612c2e5760405162461bcd60e51b8152600401610d0990614586565b610ec28282613464565b600054610100900460ff16612c5f5760405162461bcd60e51b8152600401610d0990614586565b565b610ec282826129a4565b816001600160a01b0316836001600160a01b031603612ccc5760405162461bcd60e51b815260206004820152601960248201527f4552433732313a20617070726f766520746f2063616c6c6572000000000000006044820152606401610d09565b6001600160a01b038381166000818152606a6020908152604080832094871680845294825291829020805460ff191686151590811790915591519182527f17307eab39ab6107e8899845ad3d59bd9653f200f220920489ca2b5937696c31910160405180910390a3505050565b612d4484848461295c565b612d50848484846134a4565b611dff5760405162461bcd60e51b8152600401610d09906145d1565b600082828080601f0160208091040260200160405190810160405280939291908181526020018383808284376000920191909152505082519293505060058210905080612db95750601f81115b15612dd757604051633eb64ab360e01b815260040160405180910390fd5b600084846000818110612dec57612dec614623565b909101356001600160f81b031916915050602d60f81b811480612e1c5750605f60f81b6001600160f81b03198216145b15612e3a57604051632f2c22a760e11b815260040160405180910390fd5b60005b82811015612f8657600360fc1b848281518110612e5c57612e5c614623565b01602001516001600160f81b0319161080612e9a5750603d60f91b848281518110612e8957612e89614623565b01602001516001600160f81b031916115b80612ef65750603960f81b848281518110612eb757612eb7614623565b01602001516001600160f81b031916118015612ef65750606160f81b848281518110612ee557612ee5614623565b01602001516001600160f81b031916105b8015612f275750838181518110612f0f57612f0f614623565b6020910101516001600160f81b031916602d60f81b14155b8015612f585750838181518110612f4057612f40614623565b6020910101516001600160f81b031916605f60f81b14155b15612f7657604051630bb7f19b60e21b815260040160405180910390fd5b612f7f81614639565b9050612e3d565b505050505050565b6001600160a01b038216612fe45760405162461bcd60e51b815260206004820181905260248201527f4552433732313a206d696e7420746f20746865207a65726f20616464726573736044820152606401610d09565b6000818152606760205260409020546001600160a01b0316156130495760405162461bcd60e51b815260206004820152601c60248201527f4552433732313a20746f6b656e20616c7265616479206d696e746564000000006044820152606401610d09565b6130576000838360016135a5565b6000818152606760205260409020546001600160a01b0316156130bc5760405162461bcd60e51b815260206004820152601c60248201527f4552433732313a20746f6b656e20616c7265616479206d696e746564000000006044820152606401610d09565b6001600160a01b038216600081815260686020908152604080832080546001019055848352606790915280822080546001600160a01b0319168417905551839291907fddf252ad1be2c89b69c2b068fc378daa952ba7f163c4a11628f55a4df523b3ef908290a45050565b6000806131346101355490565b905061314561013580546001019055565b600081815261012e60205260409020600181016131628682614375565b508181556101345460088201556009810180546001600160a01b031916905560405160019061012d9061319690889061466e565b908152604080519182900360209081018320805494151560ff19909516949094179093556001600160a01b0387166000818152610132909452922084905561013354610134547f8475f1ba3b06c1e11c870cbbf9753ca9a8292ea0b203262f682de476dc268f8c9261320b9287928b9261468a565b60405180910390a2509392505050565b600081815261012e602090815260408083209051606093926132419260010191016146b6565b60405160208183030381529060405290506000601461012e60008681526020019081526020016000206001018054613278906141c0565b905011156132a05760405180604001604052806002815260200161034360f41b8152506132bc565b60405180604001604052806002815260200161036360f41b8152505b905060006132ea82846040516020016132d6929190614738565b60405160208183030381529060405261362d565b6040516020016132fa9190614ab0565b604051602081830303815290604052905061332183826040516020016132d6929190614af5565b6040516020016133319190614b91565b6040516020818303038152906040529350505050919050565b6133548282611b97565b610ec25761336181613780565b61336c836020613792565b60405160200161337d929190614bd6565b60408051601f198184030181529082905262461bcd60e51b8252610d0991600401613b43565b6001600160a01b0381163b6134105760405162461bcd60e51b815260206004820152602d60248201527f455243313936373a206e657720696d706c656d656e746174696f6e206973206e60448201526c1bdd08184818dbdb9d1c9858dd609a1b6064820152608401610d09565b600080516020614cff83398151915280546001600160a01b0319166001600160a01b0392909216919091179055565b61344883613935565b6000825111806134555750805b15610daa57611dff8383613975565b600054610100900460ff1661348b5760405162461bcd60e51b8152600401610d0990614586565b60656134978382614375565b506066610daa8282614375565b60006001600160a01b0384163b1561359a57604051630a85bd0160e11b81526001600160a01b0385169063150b7a02906134e8903390899088908890600401614c4b565b6020604051808303816000875af1925050508015613523575060408051601f3d908101601f1916820190925261352091810190614c7e565b60015b613580573d808015613551576040519150601f19603f3d011682016040523d82523d6000602084013e613556565b606091505b5080516000036135785760405162461bcd60e51b8152600401610d09906145d1565b805181602001fd5b6001600160e01b031916630a85bd0160e11b149050612954565b506001949350505050565b6001811115611dff576001600160a01b038416156135eb576001600160a01b038416600090815260686020526040812080548392906135e5908490614210565b90915550505b6001600160a01b03831615611dff576001600160a01b03831660009081526068602052604081208054839290613622908490614c9b565b909155505050505050565b6060815160000361364c57505060408051602081019091526000815290565b6000604051806060016040528060408152602001614d1f604091399050600060038451600261367b9190614c9b565b6136859190614cae565b613690906004614cd0565b67ffffffffffffffff8111156136a8576136a8613c25565b6040519080825280601f01601f1916602001820160405280156136d2576020820181803683370190505b509050600182016020820185865187015b8082101561373e576003820191508151603f8160121c168501518453600184019350603f81600c1c168501518453600184019350603f8160061c168501518453600184019350603f81168501518453506001830192506136e3565b505060038651066001811461375a576002811461376d57613775565b603d6001830353603d6002830353613775565b603d60018303535b509195945050505050565b6060610bd66001600160a01b03831660145b606060006137a1836002614cd0565b6137ac906002614c9b565b67ffffffffffffffff8111156137c4576137c4613c25565b6040519080825280601f01601f1916602001820160405280156137ee576020820181803683370190505b509050600360fc1b8160008151811061380957613809614623565b60200101906001600160f81b031916908160001a905350600f60fb1b8160018151811061383857613838614623565b60200101906001600160f81b031916908160001a905350600061385c846002614cd0565b613867906001614c9b565b90505b60018111156138df576f181899199a1a9b1b9c1cb0b131b232b360811b85600f166010811061389b5761389b614623565b1a60f81b8282815181106138b1576138b1614623565b60200101906001600160f81b031916908160001a90535060049490941c936138d881614ce7565b905061386a565b50831561392e5760405162461bcd60e51b815260206004820181905260248201527f537472696e67733a20686578206c656e67746820696e73756666696369656e746044820152606401610d09565b9392505050565b61393e816133a3565b6040516001600160a01b038216907fbc7cd75a20ee27fd9adebab32041f755214dbc6bffa90cc0225b39da2e5c2d3b90600090a250565b60606001600160a01b0383163b6139dd5760405162461bcd60e51b815260206004820152602660248201527f416464726573733a2064656c65676174652063616c6c20746f206e6f6e2d636f6044820152651b9d1c9858dd60d21b6064820152608401610d09565b600080846001600160a01b0316846040516139f8919061466e565b600060405180830381855af49150503d8060008114613a33576040519150601f19603f3d011682016040523d82523d6000602084013e613a38565b606091505b5091509150613a608282604051806060016040528060278152602001614d5f60279139613a69565b95945050505050565b60608315613a7857508161392e565b61392e8383815115613a8d5781518083602001fd5b8060405162461bcd60e51b8152600401610d099190613b43565b600060208284031215613ab957600080fd5b5035919050565b6001600160e01b031981168114610fa257600080fd5b600060208284031215613ae857600080fd5b813561392e81613ac0565b60005b83811015613b0e578181015183820152602001613af6565b50506000910152565b60008151808452613b2f816020860160208601613af3565b601f01601f19169290920160200192915050565b60208152600061392e6020830184613b17565b6001600160a01b0381168114610fa257600080fd5b60008060408385031215613b7e57600080fd5b8235613b8981613b56565b946020939093013593505050565b600060208284031215613ba957600080fd5b813561392e81613b56565b600080600060608486031215613bc957600080fd5b8335613bd481613b56565b92506020840135613be481613b56565b929592945050506040919091013590565b60008060408385031215613c0857600080fd5b823591506020830135613c1a81613b56565b809150509250929050565b634e487b7160e01b600052604160045260246000fd5b600082601f830112613c4c57600080fd5b813567ffffffffffffffff80821115613c6757613c67613c25565b604051601f8301601f19908116603f01168101908282118183101715613c8f57613c8f613c25565b81604052838152866020858801011115613ca857600080fd5b836020870160208301376000602085830101528094505050505092915050565b600080600060608486031215613cdd57600080fd5b833592506020840135613cef81613b56565b9150604084013567ffffffffffffffff811115613d0b57600080fd5b613d1786828701613c3b565b9150509250925092565b60008060408385031215613d3457600080fd5b8235613d3f81613b56565b9150602083013567ffffffffffffffff811115613d5b57600080fd5b613d6785828601613c3b565b9150509250929050565b602081528151602082015260006020830151610160806040850152613d9a610180850183613b17565b91506040850151601f1980868503016060870152613db88483613b17565b935060608701519150613dd1608087018361ffff169052565b608087015161ffff811660a0880152915060a087015160c087015260c087015160e087015260e08701519150610100613e14818801846001600160a01b03169052565b80880151925050610120818786030181880152613e318584613b17565b90880151610140888101919091528801516001600160a01b038116858901529094509150613e5c9050565b5090949350505050565b60008060408385031215613e7957600080fd5b82359150602083013561ffff81168114613c1a57600080fd5b634e487b7160e01b600052602160045260246000fd5b6020810160038310613eca57634e487b7160e01b600052602160045260246000fd5b91905290565b60008060408385031215613ee357600080fd5b8235613eee81613b56565b915060208301358015158114613c1a57600080fd5b600060208284031215613f1557600080fd5b813567ffffffffffffffff811115613f2c57600080fd5b61295484828501613c3b565b60008060408385031215613f4b57600080fd5b50508035926020909101359150565b60008060008060808587031215613f7057600080fd5b8435613f7b81613b56565b93506020850135613f8b81613b56565b925060408501359150606085013567ffffffffffffffff811115613fae57600080fd5b613fba87828801613c3b565b91505092959194509250565b60008083601f840112613fd857600080fd5b50813567ffffffffffffffff811115613ff057600080fd5b60208301915083602082850101111561400857600080fd5b9250929050565b60008060006040848603121561402457600080fd5b833567ffffffffffffffff81111561403b57600080fd5b61404786828701613fc6565b909450925050602084013561405b81613b56565b809150509250925092565b6000806020838503121561407957600080fd5b823567ffffffffffffffff81111561409057600080fd5b61409c85828601613fc6565b90969095509350505050565b600080604083850312156140bb57600080fd5b82356140c681613b56565b91506020830135613c1a81613b56565b600080604083850312156140e957600080fd5b82359150602083013567ffffffffffffffff811115613d5b57600080fd5b60006020828403121561411957600080fd5b81356003811061392e57600080fd5b60006101608d83528060208401526141428184018e613b17565b90508281036040840152614156818d613b17565b61ffff8c811660608601528b16608085015260a084018a905260c084018990526001600160a01b0388811660e086015284820361010086015290915061419c8288613b17565b92508561012085015280851661014085015250509c9b505050505050505050505050565b600181811c908216806141d457607f821691505b6020821081036141f457634e487b7160e01b600052602260045260246000fd5b50919050565b634e487b7160e01b600052601160045260246000fd5b81810381811115610bd657610bd66141fa565b6020808252602d908201527f4552433732313a2063616c6c6572206973206e6f7420746f6b656e206f776e6560408201526c1c881bdc88185c1c1c9bdd9959609a1b606082015260800190565b6020808252602c908201527f46756e6374696f6e206d7573742062652063616c6c6564207468726f7567682060408201526b19195b1959d85d1958d85b1b60a21b606082015260800190565b6020808252602c908201527f46756e6374696f6e206d7573742062652063616c6c6564207468726f7567682060408201526b6163746976652070726f787960a01b606082015260800190565b6020808252600d908201526c2737ba103a34329037bbb732b960991b604082015260600190565b601f821115610daa57600081815260208120601f850160051c810160208610156143565750805b601f850160051c820191505b81811015612f8657828155600101614362565b815167ffffffffffffffff81111561438f5761438f613c25565b6143a38161439d84546141c0565b8461432f565b602080601f8311600181146143d857600084156143c05750858301515b600019600386901b1c1916600185901b178555612f86565b600085815260208120601f198616915b82811015614407578886015182559484019460019091019084016143e8565b50858210156144255787850151600019600388901b60f8161c191681555b5050505050600190811b01905550565b8381526000602060018060a01b03851681840152606060408401526000845461445d816141c0565b806060870152608060018084166000811461447f5760018114614499576144c7565b60ff1985168984015283151560051b8901830195506144c7565b896000528660002060005b858110156144bf5781548b82018601529083019088016144a4565b8a0184019650505b50939a9950505050505050505050565b60208082526024908201527f496e636f727265637420616d6f756e74206f662045544820666f72206d696e746040820152632066656560e01b606082015260800190565b60208082526022908201527f506c6174666f726d20616c726561647920686173206120506c6174666f726d20604082015261125160f21b606082015260800190565b8183823760009101908152919050565b60006020828403121561457f57600080fd5b5051919050565b6020808252602b908201527f496e697469616c697a61626c653a20636f6e7472616374206973206e6f74206960408201526a6e697469616c697a696e6760a81b606082015260800190565b60208082526032908201527f4552433732313a207472616e7366657220746f206e6f6e20455243373231526560408201527131b2b4bb32b91034b6b83632b6b2b73a32b960711b606082015260800190565b634e487b7160e01b600052603260045260246000fd5b60006001820161464b5761464b6141fa565b5060010190565b60008151614664818560208601613af3565b9290920192915050565b60008251614680818460208701613af3565b9190910192915050565b8481526080602082015260006146a36080830186613b17565b6040830194909452506060015292915050565b60008083546146c4816141c0565b600182811680156146dc57600181146146f157614720565b60ff1984168752821515830287019450614720565b8760005260208060002060005b858110156147175781548a8201529084019082016146fe565b50505082870194505b50506302e746c760e41b835250506004019392505050565b7f3c73766720786d6c6e733d22687474703a2f2f7777772e77332e6f72672f323081527f30302f737667222077696474683d2237323022206865696768743d223732302260208201527f3e3c726563742077696474683d223130302522206865696768743d223130302560408201527f222f3e3c73766720786d6c6e733d22687474703a2f2f7777772e77332e6f726760608201527f2f323030302f737667222077696474683d2231353022206865696768743d223160808201527f3530222076657273696f6e3d22312e32222076696577426f783d222d3230302060a08201527f2d353020313030302031303030223e3c706174682066696c6c3d22234646464660c08201527f46462220643d224d3236342e35203139302e3563302d31332e382031312e322d60e08201527f32352032352d3235483536386331332e3820302032352031312e3220323520326101008201527f357634393063302031332e382d31312e322032352d3235203235483238392e356101208201527f632d31332e3820302d32352d31312e322d32352d32357a222f3e3c70617468206101408201527f66696c6c3d22234646464646462220643d224d3236352036323463302d31332e6101608201527f382031312e322d32352032352d3235683534336331332e3820302032352031316101808201527f2e322032352032357635362e3563302031332e382d31312e322032352d3235206101a08201527f323548323930632d31332e3820302d32352d31312e322d32352d32357a222f3e6101c08201527f3c706174682066696c6c3d22234646464646462220643d224d30203139302e356101e08201527f63302d31332e382031312e322d32352032352d3235683534336331332e3820306102008201527f2032352031312e322032352032355632343763302031332e382d31312e3220326102208201527f352d3235203235483235632d31332e3820302d32352d31312e322d32352d32356102408201527f7a222f3e3c2f7376673e3c7465787420783d2233302220793d223637302220736102608201526b03a3cb6329e913337b73a1d160a51b6102808201526000612954614a97614a91614a6861028c860188614652565b7f70782073616e732d73657269663b66696c6c3a23666666223e00000000000000815260190190565b85614652565b6c1e17ba32bc3a1f1e17b9bb339f60991b8152600d0190565b7f646174613a696d6167652f7376672b786d6c3b6261736536342c000000000000815260008251614ae881601a850160208701613af3565b91909101601a0192915050565b683d913730b6b2911d1160b91b81528251600090614b1a816009850160208801613af3565b6b1116101134b6b0b3b2911d1160a11b6009918401918201528351614b46816015840160208801613af3565b7f222c20226465736372697074696f6e223a202254616c656e744c617965722050601592909101918201526b6c6174666f726d204944227d60a01b6035820152604101949350505050565b7f646174613a6170706c69636174696f6e2f6a736f6e3b6261736536342c000000815260008251614bc981601d850160208701613af3565b91909101601d0192915050565b7f416363657373436f6e74726f6c3a206163636f756e7420000000000000000000815260008351614c0e816017850160208801613af3565b7001034b99036b4b9b9b4b733903937b6329607d1b6017918401918201528351614c3f816028840160208801613af3565b01602801949350505050565b6001600160a01b038581168252841660208201526040810183905260806060820181905260009061238090830184613b17565b600060208284031215614c9057600080fd5b815161392e81613ac0565b80820180821115610bd657610bd66141fa565b600082614ccb57634e487b7160e01b600052601260045260246000fd5b500490565b8082028115828204841417610bd657610bd66141fa565b600081614cf657614cf66141fa565b50600019019056fe360894a13ba1a3210667c828492db98dca3e2076cc3735a920a3ca505d382bbc4142434445464748494a4b4c4d4e4f505152535455565758595a6162636465666768696a6b6c6d6e6f707172737475767778797a303132333435363738392b2f416464726573733a206c6f772d6c6576656c2064656c65676174652063616c6c206661696c6564a2646970667358221220e1b90c39835f689853cdb3bc229fb39618e29627b7a8764e180fb81a252d1b4864736f6c63430008110033",
  "linkReferences": {},
  "deployedLinkReferences": {}
}